{
  "abi": [
    {
      "inputs": [
        {
          "internalType": "address",
          "name": "token",
          "type": "address"
        },
        {
          "internalType": "uint256",
          "name": "votingPeriod_",
          "type": "uint256"
        },
        {
          "internalType": "uint256",
          "name": "votingDelay_",
          "type": "uint256"
        },
        {
          "internalType": "uint256",
          "name": "proposalThreshold_",
          "type": "uint256"
        },
        {
          "internalType": "contract IBrevisProof",
          "name": "brevisProof",
          "type": "address"
        },
        {
          "internalType": "contract IBrevisRequest",
          "name": "brevisRequest",
          "type": "address"
        },
        {
          "internalType": "uint256",
          "name": "_mappingSlotNumber",
          "type": "uint256"
        },
        {
          "internalType": "address",
          "name": "_wormholeRelayer",
          "type": "address"
        },
        {
          "internalType": "uint16",
          "name": "_targetChain",
          "type": "uint16"
        },
        {
          "internalType": "address",
          "name": "_vault",
          "type": "address"
        }
      ],
      "stateMutability": "nonpayable",
      "type": "constructor"
    },
    {
      "anonymous": false,
      "inputs": [
        {
          "indexed": false,
          "internalType": "address",
          "name": "oldAdmin",
          "type": "address"
        },
        {
          "indexed": false,
          "internalType": "address",
          "name": "newAdmin",
          "type": "address"
        }
      ],
      "name": "NewAdmin",
      "type": "event"
    },
    {
      "anonymous": false,
      "inputs": [
        {
          "indexed": false,
          "internalType": "address",
          "name": "oldImplementation",
          "type": "address"
        },
        {
          "indexed": false,
          "internalType": "address",
          "name": "newImplementation",
          "type": "address"
        }
      ],
      "name": "NewImplementation",
      "type": "event"
    },
    {
      "anonymous": false,
      "inputs": [
        {
          "indexed": false,
          "internalType": "address",
          "name": "oldPendingAdmin",
          "type": "address"
        },
        {
          "indexed": false,
          "internalType": "address",
          "name": "newPendingAdmin",
          "type": "address"
        }
      ],
      "name": "NewPendingAdmin",
      "type": "event"
    },
    {
      "anonymous": false,
      "inputs": [
        {
          "indexed": false,
          "internalType": "uint256",
          "name": "id",
          "type": "uint256"
        }
      ],
      "name": "ProposalCanceled",
      "type": "event"
    },
    {
      "anonymous": false,
      "inputs": [
        {
          "indexed": false,
          "internalType": "uint256",
          "name": "id",
          "type": "uint256"
        },
        {
          "indexed": false,
          "internalType": "address",
          "name": "proposer",
          "type": "address"
        },
        {
          "indexed": false,
          "internalType": "address[]",
          "name": "targets",
          "type": "address[]"
        },
        {
          "indexed": false,
          "internalType": "uint256[]",
          "name": "values",
          "type": "uint256[]"
        },
        {
          "indexed": false,
          "internalType": "string[]",
          "name": "signatures",
          "type": "string[]"
        },
        {
          "indexed": false,
          "internalType": "bytes[]",
          "name": "calldatas",
          "type": "bytes[]"
        },
        {
          "indexed": false,
          "internalType": "uint256",
          "name": "startBlock",
          "type": "uint256"
        },
        {
          "indexed": false,
          "internalType": "uint256",
          "name": "endBlock",
          "type": "uint256"
        },
        {
          "indexed": false,
          "internalType": "string",
          "name": "description",
          "type": "string"
        }
      ],
      "name": "ProposalCreated",
      "type": "event"
    },
    {
      "anonymous": false,
      "inputs": [
        {
          "indexed": false,
          "internalType": "uint256",
          "name": "id",
          "type": "uint256"
        }
      ],
      "name": "ProposalExecuted",
      "type": "event"
    },
    {
      "anonymous": false,
      "inputs": [
        {
          "indexed": false,
          "internalType": "uint256",
          "name": "id",
          "type": "uint256"
        },
        {
          "indexed": false,
          "internalType": "uint256",
          "name": "eta",
          "type": "uint256"
        }
      ],
      "name": "ProposalQueued",
      "type": "event"
    },
    {
      "anonymous": false,
      "inputs": [
        {
          "indexed": false,
          "internalType": "uint256",
          "name": "oldProposalThreshold",
          "type": "uint256"
        },
        {
          "indexed": false,
          "internalType": "uint256",
          "name": "newProposalThreshold",
          "type": "uint256"
        }
      ],
      "name": "ProposalThresholdSet",
      "type": "event"
    },
    {
      "anonymous": false,
      "inputs": [
        {
          "indexed": true,
          "internalType": "address",
          "name": "voter",
          "type": "address"
        },
        {
          "indexed": false,
          "internalType": "uint256",
          "name": "proposalId",
          "type": "uint256"
        },
        {
          "indexed": false,
          "internalType": "uint8",
          "name": "support",
          "type": "uint8"
        },
        {
          "indexed": false,
          "internalType": "uint256",
          "name": "votes",
          "type": "uint256"
        },
        {
          "indexed": false,
          "internalType": "string",
          "name": "reason",
          "type": "string"
        }
      ],
      "name": "VoteCast",
      "type": "event"
    },
    {
      "anonymous": false,
      "inputs": [
        {
          "indexed": false,
          "internalType": "uint256",
          "name": "oldVotingDelay",
          "type": "uint256"
        },
        {
          "indexed": false,
          "internalType": "uint256",
          "name": "newVotingDelay",
          "type": "uint256"
        }
      ],
      "name": "VotingDelaySet",
      "type": "event"
    },
    {
      "anonymous": false,
      "inputs": [
        {
          "indexed": false,
          "internalType": "uint256",
          "name": "oldVotingPeriod",
          "type": "uint256"
        },
        {
          "indexed": false,
          "internalType": "uint256",
          "name": "newVotingPeriod",
          "type": "uint256"
        }
      ],
      "name": "VotingPeriodSet",
      "type": "event"
    },
    {
      "anonymous": false,
      "inputs": [
        {
          "indexed": false,
          "internalType": "address",
          "name": "account",
          "type": "address"
        },
        {
          "indexed": false,
          "internalType": "uint256",
          "name": "expiration",
          "type": "uint256"
        }
      ],
      "name": "WhitelistAccountExpirationSet",
      "type": "event"
    },
    {
      "anonymous": false,
      "inputs": [
        {
          "indexed": false,
          "internalType": "address",
          "name": "oldGuardian",
          "type": "address"
        },
        {
          "indexed": false,
          "internalType": "address",
          "name": "newGuardian",
          "type": "address"
        }
      ],
      "name": "WhitelistGuardianSet",
      "type": "event"
    },
    {
      "inputs": [],
      "name": "BALLOT_TYPEHASH",
      "outputs": [
        {
          "internalType": "bytes32",
          "name": "",
          "type": "bytes32"
        }
      ],
      "stateMutability": "view",
      "type": "function"
    },
    {
      "inputs": [],
      "name": "BREVIS_REQUEST",
      "outputs": [
        {
          "internalType": "contract IBrevisRequest",
          "name": "",
          "type": "address"
        }
      ],
      "stateMutability": "view",
      "type": "function"
    },
    {
      "inputs": [],
      "name": "DOMAIN_TYPEHASH",
      "outputs": [
        {
          "internalType": "bytes32",
          "name": "",
          "type": "bytes32"
        }
      ],
      "stateMutability": "view",
      "type": "function"
    },
    {
      "inputs": [],
      "name": "MAX_PROPOSAL_THRESHOLD",
      "outputs": [
        {
          "internalType": "uint256",
          "name": "",
          "type": "uint256"
        }
      ],
      "stateMutability": "view",
      "type": "function"
    },
    {
      "inputs": [],
      "name": "MAX_VOTING_DELAY",
      "outputs": [
        {
          "internalType": "uint256",
          "name": "",
          "type": "uint256"
        }
      ],
      "stateMutability": "view",
      "type": "function"
    },
    {
      "inputs": [],
      "name": "MAX_VOTING_PERIOD",
      "outputs": [
        {
          "internalType": "uint256",
          "name": "",
          "type": "uint256"
        }
      ],
      "stateMutability": "view",
      "type": "function"
    },
    {
      "inputs": [],
      "name": "MIN_PROPOSAL_THRESHOLD",
      "outputs": [
        {
          "internalType": "uint256",
          "name": "",
          "type": "uint256"
        }
      ],
      "stateMutability": "view",
      "type": "function"
    },
    {
      "inputs": [],
      "name": "MIN_VOTING_DELAY",
      "outputs": [
        {
          "internalType": "uint256",
          "name": "",
          "type": "uint256"
        }
      ],
      "stateMutability": "view",
      "type": "function"
    },
    {
      "inputs": [],
      "name": "MIN_VOTING_PERIOD",
      "outputs": [
        {
          "internalType": "uint256",
          "name": "",
          "type": "uint256"
        }
      ],
      "stateMutability": "view",
      "type": "function"
    },
    {
      "inputs": [],
      "name": "_acceptAdmin",
      "outputs": [],
      "stateMutability": "nonpayable",
      "type": "function"
    },
    {
      "inputs": [
        {
          "internalType": "address",
          "name": "newPendingAdmin",
          "type": "address"
        }
      ],
      "name": "_setPendingAdmin",
      "outputs": [],
      "stateMutability": "nonpayable",
      "type": "function"
    },
    {
      "inputs": [
        {
          "internalType": "uint256",
          "name": "newProposalThreshold",
          "type": "uint256"
        }
      ],
      "name": "_setProposalThreshold",
      "outputs": [],
      "stateMutability": "nonpayable",
      "type": "function"
    },
    {
      "inputs": [
        {
          "internalType": "uint256",
          "name": "newVotingDelay",
          "type": "uint256"
        }
      ],
      "name": "_setVotingDelay",
      "outputs": [],
      "stateMutability": "nonpayable",
      "type": "function"
    },
    {
      "inputs": [
        {
          "internalType": "uint256",
          "name": "newVotingPeriod",
          "type": "uint256"
        }
      ],
      "name": "_setVotingPeriod",
      "outputs": [],
      "stateMutability": "nonpayable",
      "type": "function"
    },
    {
      "inputs": [
        {
          "internalType": "address",
          "name": "account",
          "type": "address"
        },
        {
          "internalType": "uint256",
          "name": "expiration",
          "type": "uint256"
        }
      ],
      "name": "_setWhitelistAccountExpiration",
      "outputs": [],
      "stateMutability": "nonpayable",
      "type": "function"
    },
    {
      "inputs": [
        {
          "internalType": "address",
          "name": "account",
          "type": "address"
        }
      ],
      "name": "_setWhitelistGuardian",
      "outputs": [],
      "stateMutability": "nonpayable",
      "type": "function"
    },
    {
      "inputs": [],
      "name": "admin",
      "outputs": [
        {
          "internalType": "address",
          "name": "",
          "type": "address"
        }
      ],
      "stateMutability": "view",
      "type": "function"
    },
    {
      "inputs": [
        {
          "internalType": "uint256",
          "name": "blockNumber",
          "type": "uint256"
        }
      ],
      "name": "blockToProposalId",
      "outputs": [
        {
          "internalType": "uint256",
          "name": "proposalId",
          "type": "uint256"
        }
      ],
      "stateMutability": "view",
      "type": "function"
    },
    {
      "inputs": [
        {
          "internalType": "bytes32",
          "name": "_requestId",
          "type": "bytes32"
        },
        {
          "internalType": "bytes",
          "name": "_appCircuitOutput",
          "type": "bytes"
        }
      ],
      "name": "brevisCallback",
      "outputs": [],
      "stateMutability": "nonpayable",
      "type": "function"
    },
    {
      "inputs": [],
      "name": "brevisProof",
      "outputs": [
        {
          "internalType": "contract IBrevisProof",
          "name": "",
          "type": "address"
        }
      ],
      "stateMutability": "view",
      "type": "function"
    },
    {
      "inputs": [
        {
          "internalType": "uint256",
          "name": "proposalId",
          "type": "uint256"
        }
      ],
      "name": "cancel",
      "outputs": [],
      "stateMutability": "nonpayable",
      "type": "function"
    },
    {
      "inputs": [
        {
          "internalType": "uint256",
          "name": "proposalId",
          "type": "uint256"
        },
        {
          "internalType": "uint8",
          "name": "support",
          "type": "uint8"
        },
        {
          "internalType": "bytes32",
          "name": "_requestId",
          "type": "bytes32"
        }
      ],
      "name": "castVote",
      "outputs": [],
      "stateMutability": "nonpayable",
      "type": "function"
    },
    {
      "inputs": [
        {
          "internalType": "uint256",
          "name": "proposalId",
          "type": "uint256"
        }
      ],
      "name": "execute",
      "outputs": [],
      "stateMutability": "payable",
      "type": "function"
    },
    {
      "inputs": [
        {
          "internalType": "uint256",
          "name": "proposalId",
          "type": "uint256"
        }
      ],
      "name": "getActions",
      "outputs": [
        {
          "internalType": "address[]",
          "name": "targets",
          "type": "address[]"
        },
        {
          "internalType": "uint256[]",
          "name": "values",
          "type": "uint256[]"
        },
        {
          "internalType": "string[]",
          "name": "signatures",
          "type": "string[]"
        },
        {
          "internalType": "bytes[]",
          "name": "calldatas",
          "type": "bytes[]"
        }
      ],
      "stateMutability": "view",
      "type": "function"
    },
    {
      "inputs": [],
      "name": "getQuote",
      "outputs": [
        {
          "internalType": "uint256",
          "name": "cost",
          "type": "uint256"
        }
      ],
      "stateMutability": "view",
      "type": "function"
    },
    {
      "inputs": [
        {
          "internalType": "uint256",
          "name": "proposalId",
          "type": "uint256"
        },
        {
          "internalType": "address",
          "name": "voter",
          "type": "address"
        }
      ],
      "name": "getReceipt",
      "outputs": [
        {
          "components": [
            {
              "internalType": "bool",
              "name": "hasVoted",
              "type": "bool"
            },
            {
              "internalType": "uint8",
              "name": "support",
              "type": "uint8"
            },
            {
              "internalType": "uint96",
              "name": "votes",
              "type": "uint96"
            }
          ],
          "internalType": "struct GovernorStorage.Receipt",
          "name": "",
          "type": "tuple"
        }
      ],
      "stateMutability": "view",
      "type": "function"
    },
    {
      "inputs": [],
      "name": "govToken",
      "outputs": [
        {
          "internalType": "address",
          "name": "",
          "type": "address"
        }
      ],
      "stateMutability": "view",
      "type": "function"
    },
    {
      "inputs": [],
      "name": "initialProposalId",
      "outputs": [
        {
          "internalType": "uint256",
          "name": "",
          "type": "uint256"
        }
      ],
      "stateMutability": "view",
      "type": "function"
    },
    {
      "inputs": [
        {
          "internalType": "address",
          "name": "account",
          "type": "address"
        }
      ],
      "name": "isWhitelisted",
      "outputs": [
        {
          "internalType": "bool",
          "name": "",
          "type": "bool"
        }
      ],
      "stateMutability": "view",
      "type": "function"
    },
    {
      "inputs": [
        {
          "internalType": "address",
          "name": "",
          "type": "address"
        }
      ],
      "name": "latestProposalIds",
      "outputs": [
        {
          "internalType": "uint256",
          "name": "",
          "type": "uint256"
        }
      ],
      "stateMutability": "view",
      "type": "function"
    },
    {
      "inputs": [],
      "name": "mappingSlotNumber",
      "outputs": [
        {
          "internalType": "uint256",
          "name": "",
          "type": "uint256"
        }
      ],
      "stateMutability": "view",
      "type": "function"
    },
    {
      "inputs": [],
      "name": "name",
      "outputs": [
        {
          "internalType": "string",
          "name": "",
          "type": "string"
        }
      ],
      "stateMutability": "view",
      "type": "function"
    },
    {
      "inputs": [],
      "name": "pendingAdmin",
      "outputs": [
        {
          "internalType": "address",
          "name": "",
          "type": "address"
        }
      ],
      "stateMutability": "view",
      "type": "function"
    },
    {
      "inputs": [],
      "name": "proposalCount",
      "outputs": [
        {
          "internalType": "uint256",
          "name": "",
          "type": "uint256"
        }
      ],
      "stateMutability": "view",
      "type": "function"
    },
    {
      "inputs": [],
      "name": "proposalMaxOperations",
      "outputs": [
        {
          "internalType": "uint256",
          "name": "",
          "type": "uint256"
        }
      ],
      "stateMutability": "view",
      "type": "function"
    },
    {
      "inputs": [],
      "name": "proposalThreshold",
      "outputs": [
        {
          "internalType": "uint256",
          "name": "",
          "type": "uint256"
        }
      ],
      "stateMutability": "view",
      "type": "function"
    },
    {
      "inputs": [
        {
          "internalType": "uint256",
          "name": "",
          "type": "uint256"
        }
      ],
      "name": "proposals",
      "outputs": [
        {
          "internalType": "uint256",
          "name": "id",
          "type": "uint256"
        },
        {
          "internalType": "address",
          "name": "proposer",
          "type": "address"
        },
        {
          "internalType": "uint256",
          "name": "eta",
          "type": "uint256"
        },
        {
          "internalType": "uint256",
          "name": "startBlock",
          "type": "uint256"
        },
        {
          "internalType": "uint256",
          "name": "endBlock",
          "type": "uint256"
        },
        {
          "internalType": "uint256",
          "name": "forVotes",
          "type": "uint256"
        },
        {
          "internalType": "uint256",
          "name": "againstVotes",
          "type": "uint256"
        },
        {
          "internalType": "uint256",
          "name": "abstainVotes",
          "type": "uint256"
        },
        {
          "internalType": "bool",
          "name": "canceled",
          "type": "bool"
        },
        {
          "internalType": "bool",
          "name": "executed",
          "type": "bool"
        }
      ],
      "stateMutability": "view",
      "type": "function"
    },
    {
      "inputs": [
        {
          "internalType": "address[]",
          "name": "targets",
          "type": "address[]"
        },
        {
          "internalType": "uint256[]",
          "name": "values",
          "type": "uint256[]"
        },
        {
          "internalType": "string[]",
          "name": "signatures",
          "type": "string[]"
        },
        {
          "internalType": "bytes[]",
          "name": "calldatas",
          "type": "bytes[]"
        },
        {
          "internalType": "string",
          "name": "description",
          "type": "string"
        }
      ],
      "name": "propose",
      "outputs": [
        {
          "internalType": "uint256",
          "name": "",
          "type": "uint256"
        }
      ],
      "stateMutability": "nonpayable",
      "type": "function"
    },
    {
      "inputs": [
        {
          "internalType": "uint256",
          "name": "proposalId",
          "type": "uint256"
        }
      ],
      "name": "queue",
      "outputs": [],
      "stateMutability": "nonpayable",
      "type": "function"
    },
    {
      "inputs": [],
      "name": "quorumVotes",
      "outputs": [
        {
          "internalType": "uint256",
          "name": "",
          "type": "uint256"
        }
      ],
      "stateMutability": "view",
      "type": "function"
    },
    {
      "inputs": [
        {
          "internalType": "bytes32",
          "name": "_vkHash",
          "type": "bytes32"
        }
      ],
      "name": "setVkHash",
      "outputs": [],
      "stateMutability": "nonpayable",
      "type": "function"
    },
    {
      "inputs": [
        {
          "internalType": "uint256",
          "name": "proposalId",
          "type": "uint256"
        }
      ],
      "name": "state",
      "outputs": [
        {
          "internalType": "enum GovernorStorage.ProposalState",
          "name": "",
          "type": "uint8"
        }
      ],
      "stateMutability": "view",
      "type": "function"
    },
    {
      "inputs": [],
      "name": "timelock",
      "outputs": [
        {
          "internalType": "contract TimelockInterface",
          "name": "",
          "type": "address"
        }
      ],
      "stateMutability": "view",
      "type": "function"
    },
    {
      "inputs": [
        {
          "internalType": "bytes32",
          "name": "_requestId",
          "type": "bytes32"
        },
        {
          "internalType": "uint64",
          "name": "_chainId",
          "type": "uint64"
        },
        {
          "components": [
            {
              "internalType": "bytes32",
              "name": "smtRoot",
              "type": "bytes32"
            },
            {
              "components": [
                {
                  "internalType": "uint64",
                  "name": "blkNum",
                  "type": "uint64"
                },
                {
                  "internalType": "uint64",
                  "name": "receiptIndex",
                  "type": "uint64"
                },
                {
                  "components": [
                    {
                      "components": [
                        {
                          "internalType": "uint8",
                          "name": "valueFromTopic",
                          "type": "uint8"
                        },
                        {
                          "internalType": "uint64",
                          "name": "valueIndex",
                          "type": "uint64"
                        },
                        {
                          "internalType": "address",
                          "name": "contractAddress",
                          "type": "address"
                        },
                        {
                          "internalType": "bytes32",
                          "name": "logTopic0",
                          "type": "bytes32"
                        }
                      ],
                      "internalType": "struct Brevis.LogExtraInfo",
                      "name": "logExtraInfo",
                      "type": "tuple"
                    },
                    {
                      "internalType": "uint64",
                      "name": "logIndex",
                      "type": "uint64"
                    },
                    {
                      "internalType": "bytes32",
                      "name": "value",
                      "type": "bytes32"
                    }
                  ],
                  "internalType": "struct Brevis.LogInfo[5]",
                  "name": "logs",
                  "type": "tuple[5]"
                }
              ],
              "internalType": "struct Brevis.ReceiptInfo[]",
              "name": "receipts",
              "type": "tuple[]"
            },
            {
              "components": [
                {
                  "internalType": "bytes32",
                  "name": "blockHash",
                  "type": "bytes32"
                },
                {
                  "internalType": "address",
                  "name": "account",
                  "type": "address"
                },
                {
                  "internalType": "bytes32",
                  "name": "slot",
                  "type": "bytes32"
                },
                {
                  "internalType": "bytes32",
                  "name": "slotValue",
                  "type": "bytes32"
                },
                {
                  "internalType": "uint64",
                  "name": "blockNumber",
                  "type": "uint64"
                }
              ],
              "internalType": "struct Brevis.StorageInfo[]",
              "name": "stores",
              "type": "tuple[]"
            },
            {
              "components": [
                {
                  "internalType": "bytes32",
                  "name": "leafHash",
                  "type": "bytes32"
                },
                {
                  "internalType": "bytes32",
                  "name": "blockHash",
                  "type": "bytes32"
                },
                {
                  "internalType": "uint64",
                  "name": "blockNumber",
                  "type": "uint64"
                },
                {
                  "internalType": "uint64",
                  "name": "blockTime",
                  "type": "uint64"
                },
                {
                  "internalType": "bytes",
                  "name": "leafRlpPrefix",
                  "type": "bytes"
                }
              ],
              "internalType": "struct Brevis.TransactionInfo[]",
              "name": "txs",
              "type": "tuple[]"
            }
          ],
          "internalType": "struct Brevis.ExtractInfos",
          "name": "_extractInfos",
          "type": "tuple"
        }
      ],
      "name": "validateRequest",
      "outputs": [
        {
          "internalType": "bool",
          "name": "",
          "type": "bool"
        }
      ],
      "stateMutability": "view",
      "type": "function"
    },
    {
      "inputs": [],
      "name": "vkHash",
      "outputs": [
        {
          "internalType": "bytes32",
          "name": "",
          "type": "bytes32"
        }
      ],
      "stateMutability": "view",
      "type": "function"
    },
    {
      "inputs": [],
      "name": "votingDelay",
      "outputs": [
        {
          "internalType": "uint256",
          "name": "",
          "type": "uint256"
        }
      ],
      "stateMutability": "view",
      "type": "function"
    },
    {
      "inputs": [],
      "name": "votingPeriod",
      "outputs": [
        {
          "internalType": "uint256",
          "name": "",
          "type": "uint256"
        }
      ],
      "stateMutability": "view",
      "type": "function"
    },
    {
      "inputs": [
        {
          "internalType": "address",
          "name": "",
          "type": "address"
        }
      ],
      "name": "whitelistAccountExpirations",
      "outputs": [
        {
          "internalType": "uint256",
          "name": "",
          "type": "uint256"
        }
      ],
      "stateMutability": "view",
      "type": "function"
    },
    {
      "inputs": [],
      "name": "whitelistGuardian",
      "outputs": [
        {
          "internalType": "address",
          "name": "",
          "type": "address"
        }
      ],
      "stateMutability": "view",
      "type": "function"
    },
    {
      "inputs": [],
      "name": "wormholeRelayer",
      "outputs": [
        {
          "internalType": "contract IWormholeRelayer",
          "name": "",
          "type": "address"
        }
      ],
      "stateMutability": "view",
      "type": "function"
    }
  ],
  "bytecode": {
    "object": "0x610100346200036757601f62003d6038819003918201601f191683019291906001600160401b038411838510176200036c578161014092849260409687528339810103126200036757620000538162000382565b602080830151848401516060850151608086015195949092906001600160a01b03908188168803620003675760a087015196828816809803620003675760c081015198620000a460e0830162000382565b916101008101519261ffff841684036200036757620000c861012087930162000382565b926080521660a05260c05260e05281600054163303620003155716938415620002ca5761168082101580620002bc575b15620002715760018310158062000264575b156200021a57683635c9adc5dea000008410158062000205575b15620001ad575060018060a01b031993846008541617600855600355600255600455600e541617600e55601155516139a8908162000398823960805181818161165401528181611ac901528181611bc20152612057015260a0518181816103b7015281816115c8015261344f015260c05181610360015260e051818181610331015261340f0152f35b60849088519062461bcd60e51b825260048201526035602482015260008051602062003d4083398151915260448201527f69642070726f706f73616c207468726573686f6c6400000000000000000000006064820152fd5b5069152d02c7e14af680000084111562000124565b60849088519062461bcd60e51b82526004820152602f602482015260008051602062003d4083398151915260448201526e696420766f74696e672064656c617960881b6064820152fd5b50619d808311156200010a565b60849088519062461bcd60e51b825260048201526030602482015260008051602062003d4083398151915260448201526f1a59081d9bdd1a5b99c81c195c9a5bd960821b6064820152fd5b5062013b00821115620000f8565b60849088519062461bcd60e51b825260048201526030602482015260008051602062003d4083398151915260448201526f696420746f6b656e206164647265737360801b6064820152fd5b885162461bcd60e51b815260048101879052602560248201527f476f7665726e6f72427261766f3a3a696e697469616c697a653a2061646d696e604482015264206f6e6c7960d81b6064820152608490fd5b600080fd5b634e487b7160e01b600052604160045260246000fd5b51906001600160a01b0382168203620003675756fe608080604052600436101561001357600080fd5b60003560e01c908163013cf08b146131185750806302a251a3146130fa57806305268cff146130d157806306fdde03146130765780630ea2d98c14612f3b578063171755b114612f1857806317977c6114612ede57806317ba1b8b14612d8a5780631dfb1b5a14612c5457806320606b7014612c19578063215809ca14612bfc57806324bc1a6414612bd757806325fd935a14612bb25780632678224714612b89578063328dd98214612a8f57806338bd0dda14612a555780633932abb114612a375780633af32abf146129fb5780633e4f49e6146129cc57806340e58ee5146127a05780634d6733d2146126985780634fe840f51461267a578063590e8c87146123ca578063593ca49e146123a15780637859f6d914612388578063791f5d231461236457806379d6b6a214611fe55780637bdbe4d014611fc95780637c08aa74146118fd5780639953336514611815578063a64e024a146117f7578063abc42af3146117cb578063b1126263146117ae578063b58131b014611790578063b71d1a0c146116ac578063c5a8425d14611683578063c7f5aaa01461163e578063c9fa2a4214611620578063d33219b4146115f7578063da25b725146115b2578063da35c66414611594578063da95691a14610b16578063ddf0b00914610795578063deaaa7cc1461075a578063e23a9a52146106a3578063e48083fe14610687578063e9c714f214610569578063f851a44014610540578063fc4eee42146105225763fe0d94c11461024557600080fd5b602080600319360112610443576004359061025f82613788565b600881101561050c576005036104945781600052600981526040600020600c810161010061ff00198254161790556102996003820161367c565b906102b260066102ab600484016136d4565b9201613723565b916102bb6133ff565b9283340361045b5784926102f0949261031361031f936103036040519889948c8a8701526080604087015260a08601906132a3565b601f1995868683030160608701526132e0565b9084848303016080850152613314565b03908101855284613218565b6040516347f66e8160e11b815261ffff7f00000000000000000000000000000000000000000000000000000000000000001660048201526001600160a01b037f00000000000000000000000000000000000000000000000000000000000000008116602483015260a0604483015290938492839182906103a39060a4830190613239565b60006064830152620f4240608483015203927f0000000000000000000000000000000000000000000000000000000000000000165af1801561044f57610410575b507f712ae1383f79ac853f8d882153778e0260ef8f03b504e2866e0593e04d2b291f91604051908152a1005b8181813d8311610448575b6104258183613218565b8101031261044357516001600160401b0381160361044357386103e4565b600080fd5b503d61041b565b6040513d6000823e3d90fd5b60405162461bcd60e51b8152600481018690526011602482015270125b98dbdc9c9958dd081c185e5b595b9d607a1b6044820152606490fd5b60a4906040519062461bcd60e51b82526004820152604560248201527f476f7665726e6f72427261766f3a3a657865637574653a2070726f706f73616c60448201527f2063616e206f6e6c7920626520657865637574656420696620697420697320716064820152641d595d595960da1b6084820152fd5b634e487b7160e01b600052602160045260246000fd5b34610443576000366003190112610443576020600554604051908152f35b34610443576000366003190112610443576000546040516001600160a01b039091168152602090f35b34610443576000366003190112610443576001546001600160a01b038082163381148061067e575b1561062257600080546001600160a01b031980821684179092559316600155604080516001600160a01b03939094168316845291811660208401527fca4f2f25d0898edd99413412fb94012f9e54ec8142f9b093e7720646a95b16a9927ff9ffabca9c8276e99321725bcb43fb076a6c66a54b7f21c4e8146d8519b417dc908390a1815190815260006020820152a1005b60405162461bcd60e51b815260206004820152602e60248201527f476f7665726e6f72427261766f3a5f61636365707441646d696e3a2070656e6460448201526d696e672061646d696e206f6e6c7960901b6064820152608490fd5b50331515610591565b3461044357600036600319011261044357602060405160018152f35b34610443576040366003190112610443576024356001600160a01b03811690819003610443576000604080516106d8816131e2565b82815282602082015201526004356000526009602052600d604060002001906000526020526060604060002060405190610711826131e2565b5460ff811615159182815260ff60406020830192828560081c16845201916bffffffffffffffffffffffff809460101c1683526040519485525116602084015251166040820152f35b346104435760003660031901126104435760206040517f150214d74d59b7d1e90c73fc22ef3d991dd0a76b046543d4d80ab92d2a50328f8152f35b34610443576020366003190112610443576107b1600435613788565b600881101561050c57600403610a9f57600435600052600960205260406000206004602060018060a01b036007541660405192838092630d48571f60e31b82525afa801561044f57600090610a6b575b61080c915042613925565b9060005b6003820154811015610a315761088461082c826003850161358c565b905460039190911b1c6001600160a01b031661088461084e846004870161358c565b90549060031b1c610897610865866005890161358c565b5061088b6108768860068b0161358c565b5091604051958680926135a4565b0385613218565b604051958680926135a4565b60018060a01b03600754169060405160208101906108cb816108bd8c8a89888c8961363a565b03601f198101835282613218565b5190206040519063f2b0653760e01b82526004820152602081602481865afa90811561044f576000916109f6575b5061096d5760006020946109248a60405198899788968795633a66f90160e01b87526004870161363a565b03925af1801561044f57610942575b5061093d906134c7565b610810565b602090813d8311610966575b6109588183613218565b810103126104435783610933565b503d61094e565b60405162461bcd60e51b815260206004820152605560248201527f476f7665726e6f72427261766f3a3a71756575654f72526576657274496e746560448201527f726e616c3a206964656e746963616c2070726f706f73616c20616374696f6e20606482015274616c7265616479207175657565642061742065746160581b608482015260a490fd5b90506020813d602011610a29575b81610a1160209383613218565b810103126104435751801515810361044357896108f9565b3d9150610a04565b7f9a2e42fd6722813d69113e7d0079d3d940171428df7373df9c7f7617cfda289260408480600286015581519060043582526020820152a1005b506020813d602011610a97575b81610a8560209383613218565b810103126104435761080c9051610801565b3d9150610a78565b60a460405162461bcd60e51b815260206004820152604460248201527f476f7665726e6f72427261766f3a3a71756575653a2070726f706f73616c206360448201527f616e206f6e6c79206265207175657565642069662069742069732073756363656064820152631959195960e21b6084820152fd5b346104435760a0366003190112610443576004356001600160401b038111610443573660238201121561044357806004013590610b5282613384565b90610b606040519283613218565b828252602082016024819460051b8301019136831161044357602401905b82821061157c57505050602435916001600160401b038311610443573660238401121561044357826004013591610bb483613384565b93610bc26040519586613218565b838552602085016024819560051b8301019136831161044357602401905b82821061156c575050506001600160401b036044351161044357366023604435011215610443576044356004013593610c1885613384565b94610c266040519687613218565b80865260208601903660248260051b60443501011161044357602460443501915b60248260051b60443501018310611537575050506001600160401b03606435116104435736602360643501121561044357610c8760643560040135613384565b92610c956040519485613218565b60643560040135845260208401803660246064356004013560051b60643501011161044357602460643501905b60246064356004013560051b606435010182106115075750506001600160401b036084351161044357610cfa366084356004016133e1565b84518451811490816114fc575b816114f1575b501561147a5784511561142057600a8551116113ca5733600052600a60205260406000205480611283575b50610d4560025443613925565b91610d5260035484613925565b9060005b8751811015610e3457808981610d8a8e610d73610dad96826134ec565b516040519283916020808401526040830190613239565b0391610d9e601f1993848101835282613218565b51610db2575b505050506134c7565b610d56565b82610dc3610e1594610dca936134ec565b51946134ec565b5192610dea6040519163ffffffff60e01b906020815191012016916131b4565b610e096040519485926020840152602060248401526044830190613239565b03908101835282613218565b610e1f828c6134ec565b52610e2a818b6134ec565b5089818e8e610da4565b508988918a610e446006546134c7565b9788600655886000526009602052604060002098895461122a5789556001890180546001600160a01b03191633179055600060028a01558a51906001600160401b03821161116a57600160401b821161116a5760038a0190610eab8383548185558461352d565b90600052602060002060005b83811061120d57505050508851906001600160401b03821161116a57600160401b821161116a576004890190610ef28383548185558461352d565b90600052602060002060005b8381106111f95750505050825190600160401b821161116a5760068801548260068a0155808310611180575b5090600688016000526020600020916000905b82821061104c575060208a7f7d84a6263ae0d98d3329bd7b46bb4e8d6f98cd35a7adb45c274c8b7fd5ebd5e08d8c6110418d8d8d6110288e61101a8f8660078a01558460088a0155600060098a01556000600a8a01556000600b8a0155600c890161ffff19815416905561100c89549c8d9a6001808060a01b0391015416600052600a8f528a6040600020558860005260108f528a604060002055610ffe6040519c8d9c8d5260208d903391015260408d61012091829101528d01906132a3565b908b820360608d01526132e0565b9089820360808b0152613314565b9087820360a0890152613314565b9260c086015260e0850152838203610100850152613239565b0390a1604051908152f35b80518051906001600160401b03821161116a576110698654613552565b90601f91828111611130575b5060209183116001146110c05792826001949360209386956000926110b5575b5050600019600383901b1c191690841b1787555b01940191019092610f3d565b015190503880611095565b908660005260206000209160005b601f1985168110611118575083602093600196938796938794601f198116106110ff575b505050811b0187556110a9565b015160001960f88460031b161c191690553880806110f2565b919260206001819286850151815501940192016110ce565b61115b908860005260206000208480870160051c82019260208810611161575b0160051c0190613516565b8f611075565b92508192611150565b634e487b7160e01b600052604160045260246000fd5b600689016000526020600020908382015b81830181106111a1575050610f2a565b806111ae60019254613552565b806111bb575b5001611191565b601f9081811184146111d4575050600081555b8e6111b4565b6111f060009284845260208420920160051c8201858301613516565b818355556111ce565b600190602084519401938184015501610efe565b82516001600160a01b031681830155602090920191600101610eb7565b60405162461bcd60e51b815260206004820152602b60248201527f476f7665726e6f72427261766f3a3a70726f706f73653a2050726f706f73616c60448201526a24a21031b7b63639b4b7b760a91b6064820152608490fd5b61128c90613788565b600881101561050c576001811461133957156112a85788610d38565b60405162461bcd60e51b815260206004820152605960248201527f476f7665726e6f72427261766f3a3a70726f706f73653a206f6e65206c69766560448201527f2070726f706f73616c207065722070726f706f7365722c20666f756e6420616e60648201527f20616c72656164792070656e64696e672070726f706f73616c00000000000000608482015260a490fd5b60405162461bcd60e51b815260206004820152605860248201527f476f7665726e6f72427261766f3a3a70726f706f73653a206f6e65206c69766560448201527f2070726f706f73616c207065722070726f706f7365722c20666f756e6420616e60648201527f20616c7265616479206163746976652070726f706f73616c0000000000000000608482015260a490fd5b60405162461bcd60e51b815260206004820152602860248201527f476f7665726e6f72427261766f3a3a70726f706f73653a20746f6f206d616e7960448201526720616374696f6e7360c01b6064820152608490fd5b60405162461bcd60e51b815260206004820152602c60248201527f476f7665726e6f72427261766f3a3a70726f706f73653a206d7573742070726f60448201526b7669646520616374696f6e7360a01b6064820152608490fd5b60a460405162461bcd60e51b815260206004820152604460248201527f476f7665726e6f72427261766f3a3a70726f706f73653a2070726f706f73616c60448201527f2066756e6374696f6e20696e666f726d6174696f6e206172697479206d69736d6064820152630c2e8c6d60e31b6084820152fd5b905086511489610d0d565b895181149150610d07565b6001600160401b03823511610443576020809161152c366024863560643501016133e1565b815201910190610cc2565b8235906001600160401b038211610443576020809161155f60249485369160443501016133e1565b8152019301929050610c47565b8135815260209182019101610be0565b602080916115898461328f565b815201910190610b7e565b34610443576000366003190112610443576020600654604051908152f35b34610443576000366003190112610443576040517f00000000000000000000000000000000000000000000000000000000000000006001600160a01b03168152602090f35b34610443576000366003190112610443576007546040516001600160a01b039091168152602090f35b34610443576000366003190112610443576020601154604051908152f35b34610443576000366003190112610443576040517f00000000000000000000000000000000000000000000000000000000000000006001600160a01b03168152602090f35b3461044357600036600319011261044357600c546040516001600160a01b039091168152602090f35b34610443576020366003190112610443576116c5613279565b6000546001600160a01b03908116330361173857600180548383166001600160a01b031982161790915560408051929091166001600160a01b03908116835290921660208201527fca4f2f25d0898edd99413412fb94012f9e54ec8142f9b093e7720646a95b16a991819081015b0390a1005b60405162461bcd60e51b815260206004820152602a60248201527f476f7665726e6f72427261766f3a5f73657450656e64696e6741646d696e3a2060448201526961646d696e206f6e6c7960b01b6064820152608490fd5b34610443576000366003190112610443576020600454604051908152f35b34610443576000366003190112610443576020604051619d808152f35b346104435760203660031901126104435760043560005260106020526020604060002054604051908152f35b3461044357600036600319011261044357602060405162013b008152f35b346104435760203660031901126104435761182e613279565b6000546001600160a01b03908116330361189f57600c80549282166001600160a01b03198416811790915560408051929093166001600160a01b0390811683521660208201527f80a07e73e552148844a9c216d9724212d609cfa54e9c1a2e97203bdd2c4ad3419181908101611733565b60405162461bcd60e51b815260206004820152603060248201527f476f7665726e6f72427261766f3a3a5f73657457686974656c6973744775617260448201526f6469616e3a2061646d696e206f6e6c7960801b6064820152608490fd5b346104435760031960603682011261044357602435906001600160401b0382168203610443576001600160401b036044351161044357608090604435360301126104435760405161194d816131c7565b604435600401358152602460443501356001600160401b0381116104435760443501366023820112156104435760048101359061198982613384565b916119976040519384613218565b808352602083019136602483600a1b830101116104435760248101925b602483600a1b8301018410611eb3575050505060208201526044803501356001600160401b038111610443576044350136602382011215610443576004810135906119fe82613384565b91611a0c6040519384613218565b808352602083019136602460a0840283010111610443579160248301925b602460a084028201018410611e4f57505050506040820152606460443501356001600160401b0381116104435736602382604435010112156104435760048160443501013590611a7982613384565b91611a876040519384613218565b808352602083013660248360051b8560443501010111610443576024836044350101905b60248360051b856044350101018210611d93575050505060608201527f00000000000000000000000000000000000000000000000000000000000000006001600160a01b03163b1561044357604051631f022a9d60e21b815260048035908201526001600160401b039092166024830152606060448301528051606483015260208082015160806084850152805160e4850181905284936101048501939092019060005b818110611cdb575050506040810151916063198482030160a48501526020808451928381520193019060005b818110611c835750505060600151906063198382030160c4840152815180825260208201916020808360051b8301019401926000915b838310611c115786600081808903817f00000000000000000000000000000000000000000000000000000000000000006001600160a01b03165afa801561044f57611c02575b602060405160018152f35b611c0b906131b4565b80611bf7565b919395509193602080611c71600193601f1986820301875260a060808b518051845285810151868501526001600160401b0360408201511660408501526001600160401b0360608201511660608501520151918160808201520190613239565b97019301930190928695949293611bb1565b8251805186526020818101516001600160a01b03168188015260408083015190880152606080830151908801526080918201516001600160401b03169187019190915287965060a09095019490920191600101611b7b565b9194509192604085516001600160401b0381511683526001600160401b036020820151166020840152015160408201906000915b60058310611d3157505050602061040060019201950191019185949392611b4f565b602060c0600192604085516060815160ff81511685526001600160401b03878201511687860152878060a01b03848201511684860152015160608401526001600160401b0385820151166080840152015160a082015201920192019190611d0f565b81356001600160401b0381116104435760a060443586018201360360231901126104435760405190611dc4826131fd565b604480358701820160248101358452908101356020840152611de890606401613370565b6040830152611dff60848288604435010101613370565b60608301526001600160401b0360a482886044350101013511610443576024926020928392611e3d9036906044358b010160a48101350187016133e1565b60808201528152019201919050611aab565b60a0843603126104435760a0806020602494604051611e6d816131fd565b88358152611e7c838a0161328f565b838201526040890135604082015260608901356060820152611ea060808a01613370565b6080820152815201950194925050611a2a565b61040080853603126104435760405190611ecc826131e2565b611ed586613370565b8252611ee360208701613370565b602083015236605f870112156104435760405190611f00826131fd565b819036818901116104435760408801915b8189018310611f34575050506040820152815261040093909301926020016119b4565b60c0833603126104435760405190611f4b826131e2565b6080843603126104435760405190611f62826131c7565b60ff8535168535036104435760c09260209286358152611f83848801613370565b84820152611f936040880161328f565b6040820152606087013560608201528152611fb060808701613370565b8382015260a08601356040820152815201920191611f11565b34610443576000366003190112610443576020604051600a8152f35b346104435760403660031901126104435760248035906001600160401b0390818311610443573660238401121561044357826004013591821161044357808301368284860101116104435760408051632cc27dc960e11b815260048035908201526001600160a01b03939092918382817f000000000000000000000000000000000000000000000000000000000000000088165afa94851561044f57600093600096612329575b5061209836828561339b565b938451602080960120036122e757600d9586549081159182156122dd575b5050156122ac576008958187116104435781601c116104435781603c1161044357604088013591605c11610443576060880135933560c01c60005260109283865260406000205498602c888a541691013560601c03612269575087600052600f855260406000209360005b85548110156122675787612135828861358c565b919054600392831b1c168015158061222f575b61215c575050612157906134c7565b612121565b94509890966121e2989a600052600993848252604060002095600052850190526040600020906dffffffffffffffffffffffff000060ff835480931c16936bffffffffffffffffffffffff8116971b16906dffffffffffffffffffffffff0000191617905580156000146121f0575050600a6121db9101918254613925565b905561358c565b8154921b9290921b19169055005b6001810361220657506121db9101918254613925565b6002915014612217575b505061358c565b600b6122269101918254613925565b90558580612210565b50601154604080516001600160a01b0384168c820190815260208101939093529061225d90829084016108bd565b5190208614612148565b005b8560186064926040519262461bcd60e51b845260048401528201527f696e76616c696420636f6e7472616374206164647265737300000000000000006044820152fd5b60405162461bcd60e51b815260048101859052600a8184015269696e76616c696420766b60b01b6044820152606490fd5b14905088806120b6565b606482856040519162461bcd60e51b83528160048401528201527f6661696c656420746f206f70656e206f757470757420636f6d6d69746d656e746044820152fd5b935094506040833d60401161235c575b8161234660409383613218565b810103126104435760208351930151948761208c565b3d9150612339565b34610443576000366003190112610443576020604051683635c9adc5dea000008152f35b3461044357602036600319011261044357600435600d55005b3461044357600036600319011261044357600e546040516001600160a01b039091168152602090f35b34610443576060366003190112610443576004356024803560ff81169182820361044357600e546001600160a01b0392908316803b156104435760008091606460405180948193636d23ee1960e11b8352604435600484015230898401523060448401525af1801561044f5761266b575b5061244585613788565b6008811015612656576001036125f8576002841161259957846000526009602052600d6040600020013360005260205260406000209081549060ff8216612538579061ff0060019260081b169061ffff19161717905583600052600f6020526040600020805491600160401b8310156125245750906124c99160018201815561358c565b819291549060031b9133831b921b191617905560405191825260208201526000604082015260806060820152600060808201527fb8e138887d0aa13bab447e82de9d5c1777041ecd21ca36ba824ff1e6c07ddda460a03392a2005b634e487b7160e01b60009081526041600452fd5b60405162461bcd60e51b8152602060048201526034818601527f476f7665726e6f72427261766f3a3a63617374566f7465496e7465726e616c3a604482015273081d9bdd195c88185b1c9958591e481d9bdd195960621b6064820152608490fd5b60405162461bcd60e51b8152602060048201526032818401527f476f7665726e6f72427261766f3a3a63617374566f7465496e7465726e616c3a60448201527120696e76616c696420766f7465207479706560701b6064820152608490fd5b60405162461bcd60e51b8152602060048201526031818401527f476f7665726e6f72427261766f3a3a63617374566f7465496e7465726e616c3a604482015270081d9bdd1a5b99c81a5cc818db1bdcd959607a1b6064820152608490fd5b82634e487b7160e01b60005260216004526000fd5b612674906131b4565b8561243b565b34610443576000366003190112610443576020600d54604051908152f35b34610443576040366003190112610443576126b1613279565b6000546001600160a01b039160243591831633148015612793575b15612728577f4e7b7545bc5744d0e30425959f4687475774b6c7edad77d24cb51c7d967d4515928116600052600b602052816040600020556117336040519283928360209093929193604081019460018060a01b031681520152565b60405162461bcd60e51b815260206004820152603960248201527f476f7665726e6f72427261766f3a3a5f73657457686974656c6973744163636f60448201527f756e7445787069726174696f6e3a2061646d696e206f6e6c79000000000000006064820152608490fd5b5082600c541633146126cc565b346104435760031960203682011261044357600435906127bf82613788565b600881101561050c5760078091146129685760008381526009602052604090206001808201546001600160a01b039491929190851633036129345793829394600c83018460ff19825416179055600090600380850193600486019860058701946002600689019801985b61285b575b7f789cf55be980739dad1d0699b93b58e806b51c9d96619bfa8fe0a28abaa7b30c60208d604051908152a1005b865481101561292f578a90838354166128868286612879828d61358c565b9054908a1b1c169461358c565b905490871b1c90612897838a61358c565b50906128a3848d61358c565b50928d5493823b15610443576128eb966000956128fa8d88946040519b8c998a988997632c8fe6ff60e11b89526004890152602488015260a0604488015260a48701906135a4565b918583030160648601526135a4565b90608483015203925af191821561044f5761291a92612920575b506134c7565b89612829565b612929906131b4565b8d612914565b61282e565b60405162461bcd60e51b815260206004820152600c60248201526b2737ba10383937b837b9b2b960a11b6044820152606490fd5b60405162461bcd60e51b815260206004820152603660248201527f476f7665726e6f72427261766f3a3a63616e63656c3a2063616e6e6f742063616044820152751b98d95b08195e1958dd5d1959081c1c9bdc1bdcd85b60521b6064820152608490fd5b34610443576020366003190112610443576129e8600435613788565b604051600882101561050c576020918152f35b34610443576020366003190112610443576001600160a01b03612a1c613279565b16600052600b60205260206040600020546040519042108152f35b34610443576000366003190112610443576020600254604051908152f35b34610443576020366003190112610443576001600160a01b03612a76613279565b16600052600b6020526020604060002054604051908152f35b346104435760208060031936011261044357600435600052600981526040600020906005820190612ac26003840161367c565b91612acf600485016136d4565b918154612adb81613384565b92612ae96040519485613218565b81845260009081528281208385015b838310612b5e57612b3188612b5a89612b4c8a612b3e8f612b1c60068e9201613723565b9460405198899860808a5260808a01906132a3565b91888303908901526132e0565b908582036040870152613314565b908382036060850152613314565b0390f35b6001858192604051612b7b81612b7481896135a4565b0382613218565b815201920192019190612af8565b34610443576000366003190112610443576001546040516001600160a01b039091168152602090f35b3461044357600036600319011261044357602060405169152d02c7e14af68000008152f35b346104435760003660031901126104435760206040516954b40b1f852bda0000008152f35b346104435760003660031901126104435760206040516116808152f35b346104435760003660031901126104435760206040517f8cad95687ba82c2ce50e74f7b754645e5117c3a5bec8151c0726d5857980a8668152f35b3461044357602036600319011261044357600054600435906001600160a01b03163303612d3257600181101580612d26575b15612cc45760407fc565b045403dc03c2eea82b81a0465edad9e2e7fc4d97e11421c209da93d7a9391600254908060025582519182526020820152a1005b60405162461bcd60e51b815260206004820152603460248201527f476f7665726e6f72427261766f3a3a5f736574566f74696e6744656c61793a20604482015273696e76616c696420766f74696e672064656c617960601b6064820152608490fd5b50619d80811115612c86565b60405162461bcd60e51b815260206004820152602a60248201527f476f7665726e6f72427261766f3a3a5f736574566f74696e6744656c61793a2060448201526961646d696e206f6e6c7960b01b6064820152608490fd5b3461044357602036600319011261044357600054600435906001600160a01b03163303612e8057683635c9adc5dea0000081101580612e6c575b15612e025760407fccb45da8d5717e6c4544694297c4ba5cf151d455c9bb0ed4fc7a38411bc0546191600454908060045582519182526020820152a1005b608460405162461bcd60e51b815260206004820152604060248201527f476f7665726e6f72427261766f3a3a5f73657450726f706f73616c546872657360448201527f686f6c643a20696e76616c69642070726f706f73616c207468726573686f6c646064820152fd5b5069152d02c7e14af6800000811115612dc4565b60405162461bcd60e51b815260206004820152603060248201527f476f7665726e6f72427261766f3a3a5f73657450726f706f73616c546872657360448201526f686f6c643a2061646d696e206f6e6c7960801b6064820152608490fd5b34610443576020366003190112610443576001600160a01b03612eff613279565b16600052600a6020526020604060002054604051908152f35b34610443576000366003190112610443576020612f336133ff565b604051908152f35b3461044357602036600319011261044357600054600435906001600160a01b0316330361301d5761168081101580613010575b15612fac5760407f7e3f7f0708a84de9203036abaa450dccc85ad5ff52f78c170f3edb55cf5e882891600354908060035582519182526020820152a1005b60405162461bcd60e51b815260206004820152603660248201527f476f7665726e6f72427261766f3a3a5f736574566f74696e67506572696f643a604482015275081a5b9d985b1a59081d9bdd1a5b99c81c195c9a5bd960521b6064820152608490fd5b5062013b00811115612f6e565b60405162461bcd60e51b815260206004820152602b60248201527f476f7665726e6f72427261766f3a3a5f736574566f74696e67506572696f643a60448201526a2061646d696e206f6e6c7960a81b6064820152608490fd5b346104435760003660031901126104435760405160408101908082106001600160401b0383111761116a57612b5a91604052600881526723b7bb32b93737b960c11b6020820152604051918291602083526020830190613239565b34610443576000366003190112610443576008546040516001600160a01b039091168152602090f35b34610443576000366003190112610443576020600354604051908152f35b346104435760203660031901126104435761014090600435600052600960205260ff604060002080549060018060a01b0360018201541660028201546007830154600884015490600985015492600a86015494600c600b880154970154978a5260208a015260408901526060880152608087015260a086015260c085015260e0840152818116151561010084015260081c161515610120820152f35b6001600160401b03811161116a57604052565b608081019081106001600160401b0382111761116a57604052565b606081019081106001600160401b0382111761116a57604052565b60a081019081106001600160401b0382111761116a57604052565b90601f801991011681019081106001600160401b0382111761116a57604052565b919082519283825260005b848110613265575050826000602080949584010152601f8019910116010190565b602081830181015184830182015201613244565b600435906001600160a01b038216820361044357565b35906001600160a01b038216820361044357565b90815180825260208080930193019160005b8281106132c3575050505090565b83516001600160a01b0316855293810193928101926001016132b5565b90815180825260208080930193019160005b828110613300575050505090565b8351855293810193928101926001016132f2565b908082519081815260208091019281808460051b8301019501936000915b8483106133425750505050505090565b9091929394958480613360600193601f198682030187528a51613239565b9801930193019194939290613332565b35906001600160401b038216820361044357565b6001600160401b03811161116a5760051b60200190565b9291926001600160401b03821161116a57604051916133c4601f8201601f191660200184613218565b829481845281830111610443578281602093846000960137010152565b9080601f83011215610443578160206133fc9335910161339b565b90565b6040805163c23ee3c360e01b81527f000000000000000000000000000000000000000000000000000000000000000061ffff16600482015260006024820152620f424060448201529080826064817f00000000000000000000000000000000000000000000000000000000000000006001600160a01b03165afa9081156134bd5760009161348e575b50905090565b82813d83116134b6575b6134a28183613218565b810103126134b35750518038613488565b80fd5b503d613498565b513d6000823e3d90fd5b60001981146134d65760010190565b634e487b7160e01b600052601160045260246000fd5b80518210156135005760209160051b010190565b634e487b7160e01b600052603260045260246000fd5b818110613521575050565b60008155600101613516565b9181811061353a57505050565b6135509260005260206000209182019101613516565b565b90600182811c92168015613582575b602083101461356c57565b634e487b7160e01b600052602260045260246000fd5b91607f1691613561565b80548210156135005760005260206000200190600090565b90600092918054916135b583613552565b91828252600193848116908160001461361757506001146135d7575b50505050565b90919394506000526020928360002092846000945b8386106136035750505050010190388080806135d1565b8054858701830152940193859082016135ec565b9294505050602093945060ff191683830152151560051b010190388080806135d1565b95949390608093613677936136699260018060a01b03168952602089015260a0604089015260a0880190613239565b908682036060880152613239565b930152565b9060405191828154918282526020928383019160005283600020936000905b8282106136b15750505061355092500383613218565b85546001600160a01b03168452600195860195889550938101939091019061369b565b9060405191828154918282526020928383019160005283600020936000905b8282106137095750505061355092500383613218565b8554845260019586019588955093810193909101906136f3565b90815461372f81613384565b9260409361373f85519182613218565b828152809460208092019260005281600020906000935b85851061376557505050505050565b6001848192845161377a81612b74818a6135a4565b815201930194019391613756565b9081600654106138ce576000918252600960205260408220600c8101549060ff8216156137b757506002925050565b600781015443116137c6575050565b600881015443116137d957506001925050565b6009810154600a8201548111908115916138ba575b50156137fc57506003925050565b60020154908161380e57506004925050565b60081c60ff1615613820575060079150565b6007546040516360d143f160e11b81529190602090839060049082906001600160a01b03165afa9182156138af578492613871575b50613861929350613925565b421061386c57600690565b600590565b9091506020813d82116138a7575b8161388c60209383613218565b810103126138a35761386192935051908392613855565b8380fd5b3d915061387f565b6040513d86823e3d90fd5b6954b40b1f852bda000000915010386137ee565b60405162461bcd60e51b815260206004820152602960248201527f476f7665726e6f72427261766f3a3a73746174653a20696e76616c69642070726044820152681bdc1bdcd85b081a5960ba1b6064820152608490fd5b908101908181116134d65781106139395790565b60405162461bcd60e51b81526020600482015260116024820152706164646974696f6e206f766572666c6f7760781b6044820152606490fdfea26469706673582212207c44d2713952a5f461efb0580ff9a1ff42e27ec96c0ba77707bd9bdfa8b540f564736f6c63430008130033476f7665726e6f72427261766f3a3a696e697469616c697a653a20696e76616c",
    "linkReferences": {}
  },
  "methodIdentifiers": {
    "BALLOT_TYPEHASH()": "deaaa7cc",
    "BREVIS_REQUEST()": "593ca49e",
    "DOMAIN_TYPEHASH()": "20606b70",
    "MAX_PROPOSAL_THRESHOLD()": "25fd935a",
    "MAX_VOTING_DELAY()": "b1126263",
    "MAX_VOTING_PERIOD()": "a64e024a",
    "MIN_PROPOSAL_THRESHOLD()": "791f5d23",
    "MIN_VOTING_DELAY()": "e48083fe",
    "MIN_VOTING_PERIOD()": "215809ca",
    "_acceptAdmin()": "e9c714f2",
    "_setPendingAdmin(address)": "b71d1a0c",
    "_setProposalThreshold(uint256)": "17ba1b8b",
    "_setVotingDelay(uint256)": "1dfb1b5a",
    "_setVotingPeriod(uint256)": "0ea2d98c",
    "_setWhitelistAccountExpiration(address,uint256)": "4d6733d2",
    "_setWhitelistGuardian(address)": "99533365",
    "admin()": "f851a440",
    "blockToProposalId(uint256)": "abc42af3",
    "brevisCallback(bytes32,bytes)": "79d6b6a2",
    "brevisProof()": "c7f5aaa0",
    "cancel(uint256)": "40e58ee5",
    "castVote(uint256,uint8,bytes32)": "590e8c87",
    "execute(uint256)": "fe0d94c1",
    "getActions(uint256)": "328dd982",
    "getQuote()": "171755b1",
    "getReceipt(uint256,address)": "e23a9a52",
    "govToken()": "05268cff",
    "initialProposalId()": "fc4eee42",
    "isWhitelisted(address)": "3af32abf",
    "latestProposalIds(address)": "17977c61",
    "mappingSlotNumber()": "c9fa2a42",
    "name()": "06fdde03",
    "pendingAdmin()": "26782247",
    "proposalCount()": "da35c664",
    "proposalMaxOperations()": "7bdbe4d0",
    "proposalThreshold()": "b58131b0",
    "proposals(uint256)": "013cf08b",
    "propose(address[],uint256[],string[],bytes[],string)": "da95691a",
    "queue(uint256)": "ddf0b009",
    "quorumVotes()": "24bc1a64",
    "setVkHash(bytes32)": "7859f6d9",
    "state(uint256)": "3e4f49e6",
    "timelock()": "d33219b4",
    "validateRequest(bytes32,uint64,(bytes32,(uint64,uint64,((uint8,uint64,address,bytes32),uint64,bytes32)[5])[],(bytes32,address,bytes32,bytes32,uint64)[],(bytes32,bytes32,uint64,uint64,bytes)[]))": "7c08aa74",
    "vkHash()": "4fe840f5",
    "votingDelay()": "3932abb1",
    "votingPeriod()": "02a251a3",
    "whitelistAccountExpirations(address)": "38bd0dda",
    "whitelistGuardian()": "c5a8425d",
    "wormholeRelayer()": "da25b725"
  },
  "id": 27
}